{
    "abi": [
        {
            "type": "constructor",
            "inputs": [
                {
                    "name": "_implementation",
                    "type": "address",
                    "internalType": "address"
                },
                {
                    "name": "_uniswapV2Router",
                    "type": "address",
                    "internalType": "address"
                }
            ],
            "stateMutability": "nonpayable"
        },
        {
            "type": "function",
            "name": "TOTAL_SUPPLY",
            "inputs": [],
            "outputs": [
                {
                    "name": "",
                    "type": "uint256",
                    "internalType": "uint256"
                }
            ],
            "stateMutability": "view"
        },
        {
            "type": "function",
            "name": "allLaunchpads",
            "inputs": [
                {
                    "name": "",
                    "type": "uint256",
                    "internalType": "uint256"
                }
            ],
            "outputs": [
                {
                    "name": "",
                    "type": "address",
                    "internalType": "address"
                }
            ],
            "stateMutability": "view"
        },
        {
            "type": "function",
            "name": "allLaunchpadsLength",
            "inputs": [],
            "outputs": [
                {
                    "name": "",
                    "type": "uint256",
                    "internalType": "uint256"
                }
            ],
            "stateMutability": "view"
        },
        {
            "type": "function",
            "name": "createLaunchpad",
            "inputs": [
                {
                    "name": "_name",
                    "type": "string",
                    "internalType": "string"
                },
                {
                    "name": "_symbol",
                    "type": "string",
                    "internalType": "string"
                }
            ],
            "outputs": [
                {
                    "name": "launchpad",
                    "type": "address",
                    "internalType": "address"
                }
            ],
            "stateMutability": "nonpayable"
        },
        {
            "type": "function",
            "name": "implementation",
            "inputs": [],
            "outputs": [
                {
                    "name": "",
                    "type": "address",
                    "internalType": "address"
                }
            ],
            "stateMutability": "view"
        },
        {
            "type": "function",
            "name": "owner",
            "inputs": [],
            "outputs": [
                {
                    "name": "",
                    "type": "address",
                    "internalType": "address"
                }
            ],
            "stateMutability": "view"
        },
        {
            "type": "function",
            "name": "pause",
            "inputs": [],
            "outputs": [],
            "stateMutability": "nonpayable"
        },
        {
            "type": "function",
            "name": "paused",
            "inputs": [],
            "outputs": [
                {
                    "name": "",
                    "type": "bool",
                    "internalType": "bool"
                }
            ],
            "stateMutability": "view"
        },
        {
            "type": "function",
            "name": "renounceOwnership",
            "inputs": [],
            "outputs": [],
            "stateMutability": "nonpayable"
        },
        {
            "type": "function",
            "name": "tokenDeployer",
            "inputs": [],
            "outputs": [
                {
                    "name": "",
                    "type": "address",
                    "internalType": "address"
                }
            ],
            "stateMutability": "view"
        },
        {
            "type": "function",
            "name": "transferOwnership",
            "inputs": [
                {
                    "name": "newOwner",
                    "type": "address",
                    "internalType": "address"
                }
            ],
            "outputs": [],
            "stateMutability": "nonpayable"
        },
        {
            "type": "function",
            "name": "uniswapV2Router",
            "inputs": [],
            "outputs": [
                {
                    "name": "",
                    "type": "address",
                    "internalType": "address"
                }
            ],
            "stateMutability": "view"
        },
        {
            "type": "function",
            "name": "unpause",
            "inputs": [],
            "outputs": [],
            "stateMutability": "nonpayable"
        },
        {
            "type": "event",
            "name": "LaunchpadCreation",
            "inputs": [
                {
                    "name": "launchpad",
                    "type": "address",
                    "indexed": true,
                    "internalType": "address"
                },
                {
                    "name": "token",
                    "type": "address",
                    "indexed": true,
                    "internalType": "address"
                }
            ],
            "anonymous": false
        },
        {
            "type": "event",
            "name": "OwnershipTransferred",
            "inputs": [
                {
                    "name": "previousOwner",
                    "type": "address",
                    "indexed": true,
                    "internalType": "address"
                },
                {
                    "name": "newOwner",
                    "type": "address",
                    "indexed": true,
                    "internalType": "address"
                }
            ],
            "anonymous": false
        },
        {
            "type": "event",
            "name": "Paused",
            "inputs": [
                {
                    "name": "account",
                    "type": "address",
                    "indexed": false,
                    "internalType": "address"
                }
            ],
            "anonymous": false
        },
        {
            "type": "event",
            "name": "Unpaused",
            "inputs": [
                {
                    "name": "account",
                    "type": "address",
                    "indexed": false,
                    "internalType": "address"
                }
            ],
            "anonymous": false
        },
        {
            "type": "error",
            "name": "EnforcedPause",
            "inputs": []
        },
        {
            "type": "error",
            "name": "ExpectedPause",
            "inputs": []
        },
        {
            "type": "error",
            "name": "LaunchpadFactoryDeployFailed",
            "inputs": []
        },
        {
            "type": "error",
            "name": "LaunchpadFactoryInitializationFailed",
            "inputs": []
        },
        {
            "type": "error",
            "name": "LaunchpadFactoryInvalidImplementation",
            "inputs": []
        },
        {
            "type": "error",
            "name": "LaunchpadFactoryInvalidRouter",
            "inputs": []
        },
        {
            "type": "error",
            "name": "LaunchpadFactoryTokenDeploymentFailed",
            "inputs": []
        },
        {
            "type": "error",
            "name": "OwnableInvalidOwner",
            "inputs": [
                {
                    "name": "owner",
                    "type": "address",
                    "internalType": "address"
                }
            ]
        },
        {
            "type": "error",
            "name": "OwnableUnauthorizedAccount",
            "inputs": [
                {
                    "name": "account",
                    "type": "address",
                    "internalType": "address"
                }
            ]
        }
    ],
    "bytecode": {
        "object": "0x60e060405234801561000f575f5ffd5b5060405161298e38038061298e83398181016040528101906100319190610323565b335f73ffffffffffffffffffffffffffffffffffffffff168173ffffffffffffffffffffffffffffffffffffffff16036100a2575f6040517f1e4fbdf70000000000000000000000000000000000000000000000000000000081526004016100999190610370565b60405180910390fd5b6100b18161020460201b60201c565b505f5f60146101000a81548160ff0219169083151502179055505f73ffffffffffffffffffffffffffffffffffffffff168273ffffffffffffffffffffffffffffffffffffffff1603610130576040517f9a54610200000000000000000000000000000000000000000000000000000000815260040160405180910390fd5b5f73ffffffffffffffffffffffffffffffffffffffff168173ffffffffffffffffffffffffffffffffffffffff1603610195576040517fe58ca0e400000000000000000000000000000000000000000000000000000000815260040160405180910390fd5b8173ffffffffffffffffffffffffffffffffffffffff1660808173ffffffffffffffffffffffffffffffffffffffff16815250508073ffffffffffffffffffffffffffffffffffffffff1660a08173ffffffffffffffffffffffffffffffffffffffff16815250505050610389565b5f5f5f9054906101000a900473ffffffffffffffffffffffffffffffffffffffff169050815f5f6101000a81548173ffffffffffffffffffffffffffffffffffffffff021916908373ffffffffffffffffffffffffffffffffffffffff1602179055508173ffffffffffffffffffffffffffffffffffffffff168173ffffffffffffffffffffffffffffffffffffffff167f8be0079c531659141344cd1fd0a4f28419497f9722a3daafe3b4186f6b6457e060405160405180910390a35050565b5f5ffd5b5f73ffffffffffffffffffffffffffffffffffffffff82169050919050565b5f6102f2826102c9565b9050919050565b610302816102e8565b811461030c575f5ffd5b50565b5f8151905061031d816102f9565b92915050565b5f5f60408385031215610339576103386102c5565b5b5f6103468582860161030f565b92505060206103578582860161030f565b9150509250929050565b61036a816102e8565b82525050565b5f6020820190506103835f830184610361565b92915050565b60805160a05160c0516125cd6103c15f395f61026301525f818161023f015261045901525f81816102d4015261037f01526125cd5ff3fe608060405234801561000f575f5ffd5b50600436106100cd575f3560e01c8063715018a61161008a5780638da5cb5b116100645780638da5cb5b146101b5578063902d55a5146101d3578063efd780b2146101f1578063f2fde38b14610221576100cd565b8063715018a6146101835780637c02ae6d1461018d5780638456cb59146101ab576100cd565b80631694505e146100d15780632a2dae0a146100ef5780633f4ba83a1461010d57806353aca078146101175780635c60da1b146101475780635c975abb14610165575b5f5ffd5b6100d961023d565b6040516100e69190610a50565b60405180910390f35b6100f7610261565b6040516101049190610a50565b60405180910390f35b610115610285565b005b610131600480360381019061012c9190610aad565b610297565b60405161013e9190610a50565b60405180910390f35b61014f6102d2565b60405161015c9190610a50565b60405180910390f35b61016d6102f6565b60405161017a9190610af2565b60405180910390f35b61018b61030b565b005b61019561031e565b6040516101a29190610b1a565b60405180910390f35b6101b361032a565b005b6101bd61033c565b6040516101ca9190610a50565b60405180910390f35b6101db610363565b6040516101e89190610b1a565b60405180910390f35b61020b60048036038101906102069190610c6f565b610373565b6040516102189190610a50565b60405180910390f35b61023b60048036038101906102369190610d0f565b610633565b005b7f000000000000000000000000000000000000000000000000000000000000000081565b7f000000000000000000000000000000000000000000000000000000000000000081565b61028d6106b7565b61029561073e565b565b600181815481106102a6575f80fd5b905f5260205f20015f915054906101000a900473ffffffffffffffffffffffffffffffffffffffff1681565b7f000000000000000000000000000000000000000000000000000000000000000081565b5f5f60149054906101000a900460ff16905090565b6103136106b7565b61031c5f61079f565b565b5f600180549050905090565b6103326106b7565b61033a610860565b565b5f5f5f9054906101000a900473ffffffffffffffffffffffffffffffffffffffff16905090565b6b033b2e3c9fd0803ce800000081565b5f61037c6108c2565b5f7f00000000000000000000000000000000000000000000000000000000000000009050763d602d80600a3d3981f3363d3d373d3d3d363d730000008160601b60e81c175f526e5af43d82803e903d91602b57fd5bf38160781b17602052603760095ff091505f73ffffffffffffffffffffffffffffffffffffffff168273ffffffffffffffffffffffffffffffffffffffff1603610447576040517fe49c227800000000000000000000000000000000000000000000000000000000815260040160405180910390fd5b5f610453838686610903565b90505f817f0000000000000000000000000000000000000000000000000000000000000000604051602401610489929190610d3a565b60405160208183030381529060405263485cc95560e01b6020820180517bffffffffffffffffffffffffffffffffffffffffffffffffffffffff838183161783525050505090505f8473ffffffffffffffffffffffffffffffffffffffff16826040516104f69190610db3565b5f604051808303815f865af19150503d805f811461052f576040519150601f19603f3d011682016040523d82523d5f602084013e610534565b606091505b505090508061056f576040517f79a5d2b600000000000000000000000000000000000000000000000000000000815260040160405180910390fd5b600185908060018154018082558091505060019003905f5260205f20015f9091909190916101000a81548173ffffffffffffffffffffffffffffffffffffffff021916908373ffffffffffffffffffffffffffffffffffffffff1602179055508273ffffffffffffffffffffffffffffffffffffffff168573ffffffffffffffffffffffffffffffffffffffff167f9a9b06b8d301322c171f13b5e7ff63898daa5816e820ec4166f67cd37e74e96860405160405180910390a35050505092915050565b61063b6106b7565b5f73ffffffffffffffffffffffffffffffffffffffff168173ffffffffffffffffffffffffffffffffffffffff16036106ab575f6040517f1e4fbdf70000000000000000000000000000000000000000000000000000000081526004016106a29190610a50565b60405180910390fd5b6106b48161079f565b50565b6106bf6109bd565b73ffffffffffffffffffffffffffffffffffffffff166106dd61033c565b73ffffffffffffffffffffffffffffffffffffffff161461073c576107006109bd565b6040517f118cdaa70000000000000000000000000000000000000000000000000000000081526004016107339190610a50565b60405180910390fd5b565b6107466109c4565b5f5f60146101000a81548160ff0219169083151502179055507f5db9ee0a495bf2e6ff9c91a7834c1ba4fdd244a5e8aa4e537bd38aeae4b073aa6107886109bd565b6040516107959190610a50565b60405180910390a1565b5f5f5f9054906101000a900473ffffffffffffffffffffffffffffffffffffffff169050815f5f6101000a81548173ffffffffffffffffffffffffffffffffffffffff021916908373ffffffffffffffffffffffffffffffffffffffff1602179055508173ffffffffffffffffffffffffffffffffffffffff168173ffffffffffffffffffffffffffffffffffffffff167f8be0079c531659141344cd1fd0a4f28419497f9722a3daafe3b4186f6b6457e060405160405180910390a35050565b6108686108c2565b60015f60146101000a81548160ff0219169083151502179055507f62e78cea01bee320cd4e420270b5ea74000d11b0c9f74754ebdbfc544b05a2586108ab6109bd565b6040516108b89190610a50565b60405180910390a1565b6108ca6102f6565b15610901576040517fd93c066500000000000000000000000000000000000000000000000000000000815260040160405180910390fd5b565b5f61090c6108c2565b6b033b2e3c9fd0803ce800000084848460405161092890610a04565b6109359493929190610e1b565b604051809103905ff08015801561094e573d5f5f3e3d5ffd5b5090505f73ffffffffffffffffffffffffffffffffffffffff168173ffffffffffffffffffffffffffffffffffffffff16036109b6576040517facefc82e00000000000000000000000000000000000000000000000000000000815260040160405180910390fd5b9392505050565b5f33905090565b6109cc6102f6565b610a02576040517f8dfc202b00000000000000000000000000000000000000000000000000000000815260040160405180910390fd5b565b61172b80610e6d83390190565b5f73ffffffffffffffffffffffffffffffffffffffff82169050919050565b5f610a3a82610a11565b9050919050565b610a4a81610a30565b82525050565b5f602082019050610a635f830184610a41565b92915050565b5f604051905090565b5f5ffd5b5f5ffd5b5f819050919050565b610a8c81610a7a565b8114610a96575f5ffd5b50565b5f81359050610aa781610a83565b92915050565b5f60208284031215610ac257610ac1610a72565b5b5f610acf84828501610a99565b91505092915050565b5f8115159050919050565b610aec81610ad8565b82525050565b5f602082019050610b055f830184610ae3565b92915050565b610b1481610a7a565b82525050565b5f602082019050610b2d5f830184610b0b565b92915050565b5f5ffd5b5f5ffd5b5f601f19601f8301169050919050565b7f4e487b71000000000000000000000000000000000000000000000000000000005f52604160045260245ffd5b610b8182610b3b565b810181811067ffffffffffffffff82111715610ba057610b9f610b4b565b5b80604052505050565b5f610bb2610a69565b9050610bbe8282610b78565b919050565b5f67ffffffffffffffff821115610bdd57610bdc610b4b565b5b610be682610b3b565b9050602081019050919050565b828183375f83830152505050565b5f610c13610c0e84610bc3565b610ba9565b905082815260208101848484011115610c2f57610c2e610b37565b5b610c3a848285610bf3565b509392505050565b5f82601f830112610c5657610c55610b33565b5b8135610c66848260208601610c01565b91505092915050565b5f5f60408385031215610c8557610c84610a72565b5b5f83013567ffffffffffffffff811115610ca257610ca1610a76565b5b610cae85828601610c42565b925050602083013567ffffffffffffffff811115610ccf57610cce610a76565b5b610cdb85828601610c42565b9150509250929050565b610cee81610a30565b8114610cf8575f5ffd5b50565b5f81359050610d0981610ce5565b92915050565b5f60208284031215610d2457610d23610a72565b5b5f610d3184828501610cfb565b91505092915050565b5f604082019050610d4d5f830185610a41565b610d5a6020830184610a41565b9392505050565b5f81519050919050565b5f81905092915050565b8281835e5f83830152505050565b5f610d8d82610d61565b610d978185610d6b565b9350610da7818560208601610d75565b80840191505092915050565b5f610dbe8284610d83565b915081905092915050565b5f81519050919050565b5f82825260208201905092915050565b5f610ded82610dc9565b610df78185610dd3565b9350610e07818560208601610d75565b610e1081610b3b565b840191505092915050565b5f608082019050610e2e5f830187610b0b565b610e3b6020830186610a41565b8181036040830152610e4d8185610de3565b90508181036060830152610e618184610de3565b90509594505050505056fe608060405234801561000f575f5ffd5b5060405161172b38038061172b833981810160405281019061003191906104e6565b818181600390816100429190610789565b5080600490816100529190610789565b505050610065838561006e60201b60201c565b5050505061093d565b5f73ffffffffffffffffffffffffffffffffffffffff168273ffffffffffffffffffffffffffffffffffffffff16036100de575f6040517fec442f050000000000000000000000000000000000000000000000000000000081526004016100d59190610867565b60405180910390fd5b6100ef5f83836100f360201b60201c565b5050565b5f73ffffffffffffffffffffffffffffffffffffffff168373ffffffffffffffffffffffffffffffffffffffff1603610143578060025f82825461013791906108ad565b92505081905550610211565b5f5f5f8573ffffffffffffffffffffffffffffffffffffffff1673ffffffffffffffffffffffffffffffffffffffff1681526020019081526020015f20549050818110156101cc578381836040517fe450d38c0000000000000000000000000000000000000000000000000000000081526004016101c3939291906108ef565b60405180910390fd5b8181035f5f8673ffffffffffffffffffffffffffffffffffffffff1673ffffffffffffffffffffffffffffffffffffffff1681526020019081526020015f2081905550505b5f73ffffffffffffffffffffffffffffffffffffffff168273ffffffffffffffffffffffffffffffffffffffff1603610258578060025f82825403925050819055506102a2565b805f5f8473ffffffffffffffffffffffffffffffffffffffff1673ffffffffffffffffffffffffffffffffffffffff1681526020019081526020015f205f82825401925050819055505b8173ffffffffffffffffffffffffffffffffffffffff168373ffffffffffffffffffffffffffffffffffffffff167fddf252ad1be2c89b69c2b068fc378daa952ba7f163c4a11628f55a4df523b3ef836040516102ff9190610924565b60405180910390a3505050565b5f604051905090565b5f5ffd5b5f5ffd5b5f819050919050565b61032f8161031d565b8114610339575f5ffd5b50565b5f8151905061034a81610326565b92915050565b5f73ffffffffffffffffffffffffffffffffffffffff82169050919050565b5f61037982610350565b9050919050565b6103898161036f565b8114610393575f5ffd5b50565b5f815190506103a481610380565b92915050565b5f5ffd5b5f5ffd5b5f601f19601f8301169050919050565b7f4e487b71000000000000000000000000000000000000000000000000000000005f52604160045260245ffd5b6103f8826103b2565b810181811067ffffffffffffffff82111715610417576104166103c2565b5b80604052505050565b5f61042961030c565b905061043582826103ef565b919050565b5f67ffffffffffffffff821115610454576104536103c2565b5b61045d826103b2565b9050602081019050919050565b8281835e5f83830152505050565b5f61048a6104858461043a565b610420565b9050828152602081018484840111156104a6576104a56103ae565b5b6104b184828561046a565b509392505050565b5f82601f8301126104cd576104cc6103aa565b5b81516104dd848260208601610478565b91505092915050565b5f5f5f5f608085870312156104fe576104fd610315565b5b5f61050b8782880161033c565b945050602061051c87828801610396565b935050604085015167ffffffffffffffff81111561053d5761053c610319565b5b610549878288016104b9565b925050606085015167ffffffffffffffff81111561056a57610569610319565b5b610576878288016104b9565b91505092959194509250565b5f81519050919050565b7f4e487b71000000000000000000000000000000000000000000000000000000005f52602260045260245ffd5b5f60028204905060018216806105d057607f821691505b6020821081036105e3576105e261058c565b5b50919050565b5f819050815f5260205f209050919050565b5f6020601f8301049050919050565b5f82821b905092915050565b5f600883026106457fffffffffffffffffffffffffffffffffffffffffffffffffffffffffffffffff8261060a565b61064f868361060a565b95508019841693508086168417925050509392505050565b5f819050919050565b5f61068a6106856106808461031d565b610667565b61031d565b9050919050565b5f819050919050565b6106a383610670565b6106b76106af82610691565b848454610616565b825550505050565b5f5f905090565b6106ce6106bf565b6106d981848461069a565b505050565b5b818110156106fc576106f15f826106c6565b6001810190506106df565b5050565b601f82111561074157610712816105e9565b61071b846105fb565b8101602085101561072a578190505b61073e610736856105fb565b8301826106de565b50505b505050565b5f82821c905092915050565b5f6107615f1984600802610746565b1980831691505092915050565b5f6107798383610752565b9150826002028217905092915050565b61079282610582565b67ffffffffffffffff8111156107ab576107aa6103c2565b5b6107b582546105b9565b6107c0828285610700565b5f60209050601f8311600181146107f1575f84156107df578287015190505b6107e9858261076e565b865550610850565b601f1984166107ff866105e9565b5f5b8281101561082657848901518255600182019150602085019450602081019050610801565b86831015610843578489015161083f601f891682610752565b8355505b6001600288020188555050505b505050505050565b6108618161036f565b82525050565b5f60208201905061087a5f830184610858565b92915050565b7f4e487b71000000000000000000000000000000000000000000000000000000005f52601160045260245ffd5b5f6108b78261031d565b91506108c28361031d565b92508282019050808211156108da576108d9610880565b5b92915050565b6108e98161031d565b82525050565b5f6060820190506109025f830186610858565b61090f60208301856108e0565b61091c60408301846108e0565b949350505050565b5f6020820190506109375f8301846108e0565b92915050565b610de18061094a5f395ff3fe608060405234801561000f575f5ffd5b5060043610610091575f3560e01c8063313ce56711610064578063313ce5671461013157806370a082311461014f57806395d89b411461017f578063a9059cbb1461019d578063dd62ed3e146101cd57610091565b806306fdde0314610095578063095ea7b3146100b357806318160ddd146100e357806323b872dd14610101575b5f5ffd5b61009d6101fd565b6040516100aa9190610a5a565b60405180910390f35b6100cd60048036038101906100c89190610b0b565b61028d565b6040516100da9190610b63565b60405180910390f35b6100eb6102af565b6040516100f89190610b8b565b60405180910390f35b61011b60048036038101906101169190610ba4565b6102b8565b6040516101289190610b63565b60405180910390f35b6101396102e6565b6040516101469190610c0f565b60405180910390f35b61016960048036038101906101649190610c28565b6102ee565b6040516101769190610b8b565b60405180910390f35b610187610333565b6040516101949190610a5a565b60405180910390f35b6101b760048036038101906101b29190610b0b565b6103c3565b6040516101c49190610b63565b60405180910390f35b6101e760048036038101906101e29190610c53565b6103e5565b6040516101f49190610b8b565b60405180910390f35b60606003805461020c90610cbe565b80601f016020809104026020016040519081016040528092919081815260200182805461023890610cbe565b80156102835780601f1061025a57610100808354040283529160200191610283565b820191905f5260205f20905b81548152906001019060200180831161026657829003601f168201915b5050505050905090565b5f5f610297610467565b90506102a481858561046e565b600191505092915050565b5f600254905090565b5f5f6102c2610467565b90506102cf858285610480565b6102da858585610512565b60019150509392505050565b5f6012905090565b5f5f5f8373ffffffffffffffffffffffffffffffffffffffff1673ffffffffffffffffffffffffffffffffffffffff1681526020019081526020015f20549050919050565b60606004805461034290610cbe565b80601f016020809104026020016040519081016040528092919081815260200182805461036e90610cbe565b80156103b95780601f10610390576101008083540402835291602001916103b9565b820191905f5260205f20905b81548152906001019060200180831161039c57829003601f168201915b5050505050905090565b5f5f6103cd610467565b90506103da818585610512565b600191505092915050565b5f60015f8473ffffffffffffffffffffffffffffffffffffffff1673ffffffffffffffffffffffffffffffffffffffff1681526020019081526020015f205f8373ffffffffffffffffffffffffffffffffffffffff1673ffffffffffffffffffffffffffffffffffffffff1681526020019081526020015f2054905092915050565b5f33905090565b61047b8383836001610602565b505050565b5f61048b84846103e5565b90507fffffffffffffffffffffffffffffffffffffffffffffffffffffffffffffffff811461050c57818110156104fd578281836040517ffb8f41b20000000000000000000000000000000000000000000000000000000081526004016104f493929190610cfd565b60405180910390fd5b61050b84848484035f610602565b5b50505050565b5f73ffffffffffffffffffffffffffffffffffffffff168373ffffffffffffffffffffffffffffffffffffffff1603610582575f6040517f96c6fd1e0000000000000000000000000000000000000000000000000000000081526004016105799190610d32565b60405180910390fd5b5f73ffffffffffffffffffffffffffffffffffffffff168273ffffffffffffffffffffffffffffffffffffffff16036105f2575f6040517fec442f050000000000000000000000000000000000000000000000000000000081526004016105e99190610d32565b60405180910390fd5b6105fd8383836107d1565b505050565b5f73ffffffffffffffffffffffffffffffffffffffff168473ffffffffffffffffffffffffffffffffffffffff1603610672575f6040517fe602df050000000000000000000000000000000000000000000000000000000081526004016106699190610d32565b60405180910390fd5b5f73ffffffffffffffffffffffffffffffffffffffff168373ffffffffffffffffffffffffffffffffffffffff16036106e2575f6040517f94280d620000000000000000000000000000000000000000000000000000000081526004016106d99190610d32565b60405180910390fd5b8160015f8673ffffffffffffffffffffffffffffffffffffffff1673ffffffffffffffffffffffffffffffffffffffff1681526020019081526020015f205f8573ffffffffffffffffffffffffffffffffffffffff1673ffffffffffffffffffffffffffffffffffffffff1681526020019081526020015f208190555080156107cb578273ffffffffffffffffffffffffffffffffffffffff168473ffffffffffffffffffffffffffffffffffffffff167f8c5be1e5ebec7d5bd14f71427d1e84f3dd0314c0f7b2291e5b200ac8c7c3b925846040516107c29190610b8b565b60405180910390a35b50505050565b5f73ffffffffffffffffffffffffffffffffffffffff168373ffffffffffffffffffffffffffffffffffffffff1603610821578060025f8282546108159190610d78565b925050819055506108ef565b5f5f5f8573ffffffffffffffffffffffffffffffffffffffff1673ffffffffffffffffffffffffffffffffffffffff1681526020019081526020015f20549050818110156108aa578381836040517fe450d38c0000000000000000000000000000000000000000000000000000000081526004016108a193929190610cfd565b60405180910390fd5b8181035f5f8673ffffffffffffffffffffffffffffffffffffffff1673ffffffffffffffffffffffffffffffffffffffff1681526020019081526020015f2081905550505b5f73ffffffffffffffffffffffffffffffffffffffff168273ffffffffffffffffffffffffffffffffffffffff1603610936578060025f8282540392505081905550610980565b805f5f8473ffffffffffffffffffffffffffffffffffffffff1673ffffffffffffffffffffffffffffffffffffffff1681526020019081526020015f205f82825401925050819055505b8173ffffffffffffffffffffffffffffffffffffffff168373ffffffffffffffffffffffffffffffffffffffff167fddf252ad1be2c89b69c2b068fc378daa952ba7f163c4a11628f55a4df523b3ef836040516109dd9190610b8b565b60405180910390a3505050565b5f81519050919050565b5f82825260208201905092915050565b8281835e5f83830152505050565b5f601f19601f8301169050919050565b5f610a2c826109ea565b610a3681856109f4565b9350610a46818560208601610a04565b610a4f81610a12565b840191505092915050565b5f6020820190508181035f830152610a728184610a22565b905092915050565b5f5ffd5b5f73ffffffffffffffffffffffffffffffffffffffff82169050919050565b5f610aa782610a7e565b9050919050565b610ab781610a9d565b8114610ac1575f5ffd5b50565b5f81359050610ad281610aae565b92915050565b5f819050919050565b610aea81610ad8565b8114610af4575f5ffd5b50565b5f81359050610b0581610ae1565b92915050565b5f5f60408385031215610b2157610b20610a7a565b5b5f610b2e85828601610ac4565b9250506020610b3f85828601610af7565b9150509250929050565b5f8115159050919050565b610b5d81610b49565b82525050565b5f602082019050610b765f830184610b54565b92915050565b610b8581610ad8565b82525050565b5f602082019050610b9e5f830184610b7c565b92915050565b5f5f5f60608486031215610bbb57610bba610a7a565b5b5f610bc886828701610ac4565b9350506020610bd986828701610ac4565b9250506040610bea86828701610af7565b9150509250925092565b5f60ff82169050919050565b610c0981610bf4565b82525050565b5f602082019050610c225f830184610c00565b92915050565b5f60208284031215610c3d57610c3c610a7a565b5b5f610c4a84828501610ac4565b91505092915050565b5f5f60408385031215610c6957610c68610a7a565b5b5f610c7685828601610ac4565b9250506020610c8785828601610ac4565b9150509250929050565b7f4e487b71000000000000000000000000000000000000000000000000000000005f52602260045260245ffd5b5f6002820490506001821680610cd557607f821691505b602082108103610ce857610ce7610c91565b5b50919050565b610cf781610a9d565b82525050565b5f606082019050610d105f830186610cee565b610d1d6020830185610b7c565b610d2a6040830184610b7c565b949350505050565b5f602082019050610d455f830184610cee565b92915050565b7f4e487b71000000000000000000000000000000000000000000000000000000005f52601160045260245ffd5b5f610d8282610ad8565b9150610d8d83610ad8565b9250828201905080821115610da557610da4610d4b565b5b9291505056fea2646970667358221220c09013092ae9765c1fa245df2478711450d6f6265e09fe5563576dfe61b3b55d64736f6c634300081c0033a26469706673582212209e6be96d263fc9d8eec538ed76830fce63e324a308780769f70d44867bcb4af264736f6c634300081c0033",
        "linkReferences": {}
    },
    "methodIdentifiers": {
        "TOTAL_SUPPLY()": "902d55a5",
        "allLaunchpads(uint256)": "53aca078",
        "allLaunchpadsLength()": "7c02ae6d",
        "createLaunchpad(string,string)": "efd780b2",
        "implementation()": "5c60da1b",
        "owner()": "8da5cb5b",
        "pause()": "8456cb59",
        "paused()": "5c975abb",
        "renounceOwnership()": "715018a6",
        "tokenDeployer()": "2a2dae0a",
        "transferOwnership(address)": "f2fde38b",
        "uniswapV2Router()": "1694505e",
        "unpause()": "3f4ba83a"
    },
    "id": 46
}